{"abi":[{"type":"constructor","inputs":[{"name":"initialOwner","type":"address","internalType":"address"}],"stateMutability":"nonpayable"},{"type":"function","name":"DOMAIN_SEPARATOR","inputs":[],"outputs":[{"name":"","type":"bytes32","internalType":"bytes32"}],"stateMutability":"view"},{"type":"function","name":"allowance","inputs":[{"name":"owner","type":"address","internalType":"address"},{"name":"spender","type":"address","internalType":"address"}],"outputs":[{"name":"","type":"uint256","internalType":"uint256"}],"stateMutability":"view"},{"type":"function","name":"approve","inputs":[{"name":"spender","type":"address","internalType":"address"},{"name":"value","type":"uint256","internalType":"uint256"}],"outputs":[{"name":"","type":"bool","internalType":"bool"}],"stateMutability":"nonpayable"},{"type":"function","name":"approveAndCall","inputs":[{"name":"spender","type":"address","internalType":"address"},{"name":"value","type":"uint256","internalType":"uint256"}],"outputs":[{"name":"","type":"bool","internalType":"bool"}],"stateMutability":"nonpayable"},{"type":"function","name":"approveAndCall","inputs":[{"name":"spender","type":"address","internalType":"address"},{"name":"value","type":"uint256","internalType":"uint256"},{"name":"data","type":"bytes","internalType":"bytes"}],"outputs":[{"name":"","type":"bool","internalType":"bool"}],"stateMutability":"nonpayable"},{"type":"function","name":"balanceOf","inputs":[{"name":"account","type":"address","internalType":"address"}],"outputs":[{"name":"","type":"uint256","internalType":"uint256"}],"stateMutability":"view"},{"type":"function","name":"burn","inputs":[{"name":"value","type":"uint256","internalType":"uint256"}],"outputs":[],"stateMutability":"nonpayable"},{"type":"function","name":"burnFrom","inputs":[{"name":"account","type":"address","internalType":"address"},{"name":"value","type":"uint256","internalType":"uint256"}],"outputs":[],"stateMutability":"nonpayable"},{"type":"function","name":"decimals","inputs":[],"outputs":[{"name":"","type":"uint8","internalType":"uint8"}],"stateMutability":"view"},{"type":"function","name":"eip712Domain","inputs":[],"outputs":[{"name":"fields","type":"bytes1","internalType":"bytes1"},{"name":"name","type":"string","internalType":"string"},{"name":"version","type":"string","internalType":"string"},{"name":"chainId","type":"uint256","internalType":"uint256"},{"name":"verifyingContract","type":"address","internalType":"address"},{"name":"salt","type":"bytes32","internalType":"bytes32"},{"name":"extensions","type":"uint256[]","internalType":"uint256[]"}],"stateMutability":"view"},{"type":"function","name":"flashFee","inputs":[{"name":"token","type":"address","internalType":"address"},{"name":"value","type":"uint256","internalType":"uint256"}],"outputs":[{"name":"","type":"uint256","internalType":"uint256"}],"stateMutability":"view"},{"type":"function","name":"flashLoan","inputs":[{"name":"receiver","type":"address","internalType":"contract IERC3156FlashBorrower"},{"name":"token","type":"address","internalType":"address"},{"name":"value","type":"uint256","internalType":"uint256"},{"name":"data","type":"bytes","internalType":"bytes"}],"outputs":[{"name":"","type":"bool","internalType":"bool"}],"stateMutability":"nonpayable"},{"type":"function","name":"maxFlashLoan","inputs":[{"name":"token","type":"address","internalType":"address"}],"outputs":[{"name":"","type":"uint256","internalType":"uint256"}],"stateMutability":"view"},{"type":"function","name":"mint","inputs":[{"name":"to","type":"address","internalType":"address"},{"name":"amount","type":"uint256","internalType":"uint256"}],"outputs":[],"stateMutability":"nonpayable"},{"type":"function","name":"name","inputs":[],"outputs":[{"name":"","type":"string","internalType":"string"}],"stateMutability":"view"},{"type":"function","name":"nonces","inputs":[{"name":"owner","type":"address","internalType":"address"}],"outputs":[{"name":"","type":"uint256","internalType":"uint256"}],"stateMutability":"view"},{"type":"function","name":"owner","inputs":[],"outputs":[{"name":"","type":"address","internalType":"address"}],"stateMutability":"view"},{"type":"function","name":"pause","inputs":[],"outputs":[],"stateMutability":"nonpayable"},{"type":"function","name":"paused","inputs":[],"outputs":[{"name":"","type":"bool","internalType":"bool"}],"stateMutability":"view"},{"type":"function","name":"permit","inputs":[{"name":"owner","type":"address","internalType":"address"},{"name":"spender","type":"address","internalType":"address"},{"name":"value","type":"uint256","internalType":"uint256"},{"name":"deadline","type":"uint256","internalType":"uint256"},{"name":"v","type":"uint8","internalType":"uint8"},{"name":"r","type":"bytes32","internalType":"bytes32"},{"name":"s","type":"bytes32","internalType":"bytes32"}],"outputs":[],"stateMutability":"nonpayable"},{"type":"function","name":"renounceOwnership","inputs":[],"outputs":[],"stateMutability":"nonpayable"},{"type":"function","name":"supportsInterface","inputs":[{"name":"interfaceId","type":"bytes4","internalType":"bytes4"}],"outputs":[{"name":"","type":"bool","internalType":"bool"}],"stateMutability":"view"},{"type":"function","name":"symbol","inputs":[],"outputs":[{"name":"","type":"string","internalType":"string"}],"stateMutability":"view"},{"type":"function","name":"totalSupply","inputs":[],"outputs":[{"name":"","type":"uint256","internalType":"uint256"}],"stateMutability":"view"},{"type":"function","name":"transfer","inputs":[{"name":"to","type":"address","internalType":"address"},{"name":"value","type":"uint256","internalType":"uint256"}],"outputs":[{"name":"","type":"bool","internalType":"bool"}],"stateMutability":"nonpayable"},{"type":"function","name":"transferAndCall","inputs":[{"name":"to","type":"address","internalType":"address"},{"name":"value","type":"uint256","internalType":"uint256"}],"outputs":[{"name":"","type":"bool","internalType":"bool"}],"stateMutability":"nonpayable"},{"type":"function","name":"transferAndCall","inputs":[{"name":"to","type":"address","internalType":"address"},{"name":"value","type":"uint256","internalType":"uint256"},{"name":"data","type":"bytes","internalType":"bytes"}],"outputs":[{"name":"","type":"bool","internalType":"bool"}],"stateMutability":"nonpayable"},{"type":"function","name":"transferFrom","inputs":[{"name":"from","type":"address","internalType":"address"},{"name":"to","type":"address","internalType":"address"},{"name":"value","type":"uint256","internalType":"uint256"}],"outputs":[{"name":"","type":"bool","internalType":"bool"}],"stateMutability":"nonpayable"},{"type":"function","name":"transferFromAndCall","inputs":[{"name":"from","type":"address","internalType":"address"},{"name":"to","type":"address","internalType":"address"},{"name":"value","type":"uint256","internalType":"uint256"},{"name":"data","type":"bytes","internalType":"bytes"}],"outputs":[{"name":"","type":"bool","internalType":"bool"}],"stateMutability":"nonpayable"},{"type":"function","name":"transferFromAndCall","inputs":[{"name":"from","type":"address","internalType":"address"},{"name":"to","type":"address","internalType":"address"},{"name":"value","type":"uint256","internalType":"uint256"}],"outputs":[{"name":"","type":"bool","internalType":"bool"}],"stateMutability":"nonpayable"},{"type":"function","name":"transferOwnership","inputs":[{"name":"newOwner","type":"address","internalType":"address"}],"outputs":[],"stateMutability":"nonpayable"},{"type":"function","name":"unpause","inputs":[],"outputs":[],"stateMutability":"nonpayable"},{"type":"event","name":"Approval","inputs":[{"name":"owner","type":"address","indexed":true,"internalType":"address"},{"name":"spender","type":"address","indexed":true,"internalType":"address"},{"name":"value","type":"uint256","indexed":false,"internalType":"uint256"}],"anonymous":false},{"type":"event","name":"EIP712DomainChanged","inputs":[],"anonymous":false},{"type":"event","name":"OwnershipTransferred","inputs":[{"name":"previousOwner","type":"address","indexed":true,"internalType":"address"},{"name":"newOwner","type":"address","indexed":true,"internalType":"address"}],"anonymous":false},{"type":"event","name":"Paused","inputs":[{"name":"account","type":"address","indexed":false,"internalType":"address"}],"anonymous":false},{"type":"event","name":"Transfer","inputs":[{"name":"from","type":"address","indexed":true,"internalType":"address"},{"name":"to","type":"address","indexed":true,"internalType":"address"},{"name":"value","type":"uint256","indexed":false,"internalType":"uint256"}],"anonymous":false},{"type":"event","name":"Unpaused","inputs":[{"name":"account","type":"address","indexed":false,"internalType":"address"}],"anonymous":false},{"type":"error","name":"ECDSAInvalidSignature","inputs":[]},{"type":"error","name":"ECDSAInvalidSignatureLength","inputs":[{"name":"length","type":"uint256","internalType":"uint256"}]},{"type":"error","name":"ECDSAInvalidSignatureS","inputs":[{"name":"s","type":"bytes32","internalType":"bytes32"}]},{"type":"error","name":"ERC1363ApproveFailed","inputs":[{"name":"spender","type":"address","internalType":"address"},{"name":"value","type":"uint256","internalType":"uint256"}]},{"type":"error","name":"ERC1363InvalidReceiver","inputs":[{"name":"receiver","type":"address","internalType":"address"}]},{"type":"error","name":"ERC1363InvalidSpender","inputs":[{"name":"spender","type":"address","internalType":"address"}]},{"type":"error","name":"ERC1363TransferFailed","inputs":[{"name":"receiver","type":"address","internalType":"address"},{"name":"value","type":"uint256","internalType":"uint256"}]},{"type":"error","name":"ERC1363TransferFromFailed","inputs":[{"name":"sender","type":"address","internalType":"address"},{"name":"receiver","type":"address","internalType":"address"},{"name":"value","type":"uint256","internalType":"uint256"}]},{"type":"error","name":"ERC20InsufficientAllowance","inputs":[{"name":"spender","type":"address","internalType":"address"},{"name":"allowance","type":"uint256","internalType":"uint256"},{"name":"needed","type":"uint256","internalType":"uint256"}]},{"type":"error","name":"ERC20InsufficientBalance","inputs":[{"name":"sender","type":"address","internalType":"address"},{"name":"balance","type":"uint256","internalType":"uint256"},{"name":"needed","type":"uint256","internalType":"uint256"}]},{"type":"error","name":"ERC20InvalidApprover","inputs":[{"name":"approver","type":"address","internalType":"address"}]},{"type":"error","name":"ERC20InvalidReceiver","inputs":[{"name":"receiver","type":"address","internalType":"address"}]},{"type":"error","name":"ERC20InvalidSender","inputs":[{"name":"sender","type":"address","internalType":"address"}]},{"type":"error","name":"ERC20InvalidSpender","inputs":[{"name":"spender","type":"address","internalType":"address"}]},{"type":"error","name":"ERC2612ExpiredSignature","inputs":[{"name":"deadline","type":"uint256","internalType":"uint256"}]},{"type":"error","name":"ERC2612InvalidSigner","inputs":[{"name":"signer","type":"address","internalType":"address"},{"name":"owner","type":"address","internalType":"address"}]},{"type":"error","name":"ERC3156ExceededMaxLoan","inputs":[{"name":"maxLoan","type":"uint256","internalType":"uint256"}]},{"type":"error","name":"ERC3156InvalidReceiver","inputs":[{"name":"receiver","type":"address","internalType":"address"}]},{"type":"error","name":"ERC3156UnsupportedToken","inputs":[{"name":"token","type":"address","internalType":"address"}]},{"type":"error","name":"EnforcedPause","inputs":[]},{"type":"error","name":"ExpectedPause","inputs":[]},{"type":"error","name":"InvalidAccountNonce","inputs":[{"name":"account","type":"address","internalType":"address"},{"name":"currentNonce","type":"uint256","internalType":"uint256"}]},{"type":"error","name":"InvalidShortString","inputs":[]},{"type":"error","name":"OwnableInvalidOwner","inputs":[{"name":"owner","type":"address","internalType":"address"}]},{"type":"error","name":"OwnableUnauthorizedAccount","inputs":[{"name":"account","type":"address","internalType":"address"}]},{"type":"error","name":"StringTooLong","inputs":[{"name":"str","type":"string","internalType":"string"}]}],"bytecode":{"object":"0x610160604052348015610010575f5ffd5b50604051613d7f380380613d7f83398181016040528101906100329190610497565b6040518060400160405280600381526020017f5257540000000000000000000000000000000000000000000000000000000000815250806040518060400160405280600181526020017f3100000000000000000000000000000000000000000000000000000000000000815250836040518060400160405280600c81526020017f52657761726420546f6b656e00000000000000000000000000000000000000008152506040518060400160405280600381526020017f5257540000000000000000000000000000000000000000000000000000000000815250816003908161011b91906106ff565b50806004908161012b91906106ff565b5050505f73ffffffffffffffffffffffffffffffffffffffff168173ffffffffffffffffffffffffffffffffffffffff160361019e575f6040517f1e4fbdf700000000000000000000000000000000000000000000000000000000815260040161019591906107dd565b60405180910390fd5b6101ad8161025f60201b60201c565b506101c260068361032460201b90919060201c565b61012081815250506101de60078261032460201b90919060201c565b6101408181525050818051906020012060e08181525050808051906020012061010081815250504660a0818152505061021b61037160201b60201c565b608081815250503073ffffffffffffffffffffffffffffffffffffffff1660c08173ffffffffffffffffffffffffffffffffffffffff168152505050505050610987565b5f600560019054906101000a900473ffffffffffffffffffffffffffffffffffffffff16905081600560016101000a81548173ffffffffffffffffffffffffffffffffffffffff021916908373ffffffffffffffffffffffffffffffffffffffff1602179055508173ffffffffffffffffffffffffffffffffffffffff168173ffffffffffffffffffffffffffffffffffffffff167f8be0079c531659141344cd1fd0a4f28419497f9722a3daafe3b4186f6b6457e060405160405180910390a35050565b5f6020835110156103455761033e836103cb60201b60201c565b905061036b565b826103558361043060201b60201c565b5f01908161036391906106ff565b5060ff5f1b90505b92915050565b5f7f8b73c3c69bb8fe3d512ecc4cf759cc79239f7b179b0ffacaa9a75d522b39400f60e0516101005146306040516020016103b095949392919061081d565b60405160208183030381529060405280519060200120905090565b5f5f829050601f8151111561041757826040517f305a27a900000000000000000000000000000000000000000000000000000000815260040161040e91906108d4565b60405180910390fd5b80518161042390610921565b5f1c175f1b915050919050565b5f819050919050565b5f5ffd5b5f73ffffffffffffffffffffffffffffffffffffffff82169050919050565b5f6104668261043d565b9050919050565b6104768161045c565b8114610480575f5ffd5b50565b5f815190506104918161046d565b92915050565b5f602082840312156104ac576104ab610439565b5b5f6104b984828501610483565b91505092915050565b5f81519050919050565b7f4e487b71000000000000000000000000000000000000000000000000000000005f52604160045260245ffd5b7f4e487b71000000000000000000000000000000000000000000000000000000005f52602260045260245ffd5b5f600282049050600182168061053d57607f821691505b6020821081036105505761054f6104f9565b5b50919050565b5f819050815f5260205f209050919050565b5f6020601f8301049050919050565b5f82821b905092915050565b5f600883026105b27fffffffffffffffffffffffffffffffffffffffffffffffffffffffffffffffff82610577565b6105bc8683610577565b95508019841693508086168417925050509392505050565b5f819050919050565b5f819050919050565b5f6106006105fb6105f6846105d4565b6105dd565b6105d4565b9050919050565b5f819050919050565b610619836105e6565b61062d61062582610607565b848454610583565b825550505050565b5f5f905090565b610644610635565b61064f818484610610565b505050565b5b81811015610672576106675f8261063c565b600181019050610655565b5050565b601f8211156106b75761068881610556565b61069184610568565b810160208510156106a0578190505b6106b46106ac85610568565b830182610654565b50505b505050565b5f82821c905092915050565b5f6106d75f19846008026106bc565b1980831691505092915050565b5f6106ef83836106c8565b9150826002028217905092915050565b610708826104c2565b67ffffffffffffffff811115610721576107206104cc565b5b61072b8254610526565b610736828285610676565b5f60209050601f831160018114610767575f8415610755578287015190505b61075f85826106e4565b8655506107c6565b601f19841661077586610556565b5f5b8281101561079c57848901518255600182019150602085019450602081019050610777565b868310156107b957848901516107b5601f8916826106c8565b8355505b6001600288020188555050505b505050505050565b6107d78161045c565b82525050565b5f6020820190506107f05f8301846107ce565b92915050565b5f819050919050565b610808816107f6565b82525050565b610817816105d4565b82525050565b5f60a0820190506108305f8301886107ff565b61083d60208301876107ff565b61084a60408301866107ff565b610857606083018561080e565b61086460808301846107ce565b9695505050505050565b5f82825260208201905092915050565b8281835e5f83830152505050565b5f601f19601f8301169050919050565b5f6108a6826104c2565b6108b0818561086e565b93506108c081856020860161087e565b6108c98161088c565b840191505092915050565b5f6020820190508181035f8301526108ec818461089c565b905092915050565b5f81519050919050565b5f819050602082019050919050565b5f61091882516107f6565b80915050919050565b5f61092b826108f4565b82610935846108fe565b90506109408161090d565b925060208210156109805761097b7fffffffffffffffffffffffffffffffffffffffffffffffffffffffffffffffff83602003600802610577565b831692505b5050919050565b60805160a05160c05160e0516101005161012051610140516133a76109d85f395f6119a701525f61196c01525f611e8501525f611e6401525f61136f01525f6113c501525f6113ee01526133a75ff3fe608060405234801561000f575f5ffd5b50600436106101ee575f3560e01c806370a082311161010d578063a9059cbb116100a0578063d8fbe9941161006f578063d8fbe994146105e6578063d9d98ce414610616578063dd62ed3e14610646578063f2fde38b14610676576101ee565b8063a9059cbb1461053a578063c1d34b891461056a578063cae9ca511461059a578063d505accf146105ca576101ee565b80638456cb59116100dc5780638456cb59146104d057806384b0196e146104da5780638da5cb5b146104fe57806395d89b411461051c576101ee565b806370a082311461044a578063715018a61461047a57806379cc6790146104845780637ecebe00146104a0576101ee565b80633644e5151161018557806342966c681161015457806342966c68146103b05780635c975abb146103cc5780635cffe9de146103ea578063613255ab1461041a576101ee565b80633644e5151461033c5780633f4ba83a1461035a5780634000aea01461036457806340c10f1914610394576101ee565b806318160ddd116101c157806318160ddd146102a057806323b872dd146102be578063313ce567146102ee5780633177029f1461030c576101ee565b806301ffc9a7146101f257806306fdde0314610222578063095ea7b3146102405780631296ee6214610270575b5f5ffd5b61020c600480360381019061020791906125e3565b610692565b6040516102199190612628565b60405180910390f35b61022a61070b565b60405161023791906126b1565b60405180910390f35b61025a6004803603810190610255919061275e565b61079b565b6040516102679190612628565b60405180910390f35b61028a6004803603810190610285919061275e565b6107bd565b6040516102979190612628565b60405180910390f35b6102a86107df565b6040516102b591906127ab565b60405180910390f35b6102d860048036038101906102d391906127c4565b6107e8565b6040516102e59190612628565b60405180910390f35b6102f6610816565b604051610303919061282f565b60405180910390f35b6103266004803603810190610321919061275e565b61081e565b6040516103339190612628565b60405180910390f35b610344610840565b6040516103519190612860565b60405180910390f35b61036261084e565b005b61037e600480360381019061037991906129a5565b610860565b60405161038b9190612628565b60405180910390f35b6103ae60048036038101906103a9919061275e565b6108d4565b005b6103ca60048036038101906103c59190612a11565b6108ea565b005b6103d46108fe565b6040516103e19190612628565b60405180910390f35b61040460048036038101906103ff9190612ad4565b610913565b6040516104119190612628565b60405180910390f35b610434600480360381019061042f9190612b58565b610b08565b60405161044191906127ab565b60405180910390f35b610464600480360381019061045f9190612b58565b610b7d565b60405161047191906127ab565b60405180910390f35b610482610bc2565b005b61049e6004803603810190610499919061275e565b610bd5565b005b6104ba60048036038101906104b59190612b58565b610bf5565b6040516104c791906127ab565b60405180910390f35b6104d8610c06565b005b6104e2610c18565b6040516104f59796959493929190612c83565b60405180910390f35b610506610cbd565b6040516105139190612d05565b60405180910390f35b610524610ce6565b60405161053191906126b1565b60405180910390f35b610554600480360381019061054f919061275e565b610d76565b6040516105619190612628565b60405180910390f35b610584600480360381019061057f9190612d1e565b610d98565b6040516105919190612628565b60405180910390f35b6105b460048036038101906105af91906129a5565b610e09565b6040516105c19190612628565b60405180910390f35b6105e460048036038101906105df9190612df2565b610e75565b005b61060060048036038101906105fb91906127c4565b610fba565b60405161060d9190612628565b60405180910390f35b610630600480360381019061062b919061275e565b610fde565b60405161063d91906127ab565b60405180910390f35b610660600480360381019061065b9190612e8f565b611061565b60405161066d91906127ab565b60405180910390f35b610690600480360381019061068b9190612b58565b6110e3565b005b5f7fb0202a11000000000000000000000000000000000000000000000000000000007bffffffffffffffffffffffffffffffffffffffffffffffffffffffff1916827bffffffffffffffffffffffffffffffffffffffffffffffffffffffff19161480610704575061070382611167565b5b9050919050565b60606003805461071a90612efa565b80601f016020809104026020016040519081016040528092919081815260200182805461074690612efa565b80156107915780601f1061076857610100808354040283529160200191610791565b820191905f5260205f20905b81548152906001019060200180831161077457829003601f168201915b5050505050905090565b5f5f6107a56111d0565b90506107b28185856111d7565b600191505092915050565b5f6107d7838360405180602001604052805f815250610860565b905092915050565b5f600254905090565b5f5f6107f26111d0565b90506107ff8582856111e9565b61080a85858561127c565b60019150509392505050565b5f6012905090565b5f610838838360405180602001604052805f815250610e09565b905092915050565b5f61084961136c565b905090565b610856611422565b61085e6114a9565b565b5f61086b8484610d76565b6108ae5783836040517f231b03ae0000000000000000000000000000000000000000000000000000000081526004016108a5929190612f2a565b60405180910390fd5b6108c96108b96111d0565b6108c16111d0565b86868661150a565b600190509392505050565b6108dc611422565b6108e682826116f1565b5050565b6108fb6108f56111d0565b82611770565b50565b5f60055f9054906101000a900460ff16905090565b5f5f61091e86610b08565b90508085111561096557806040517ffd9a760900000000000000000000000000000000000000000000000000000000815260040161095c91906127ab565b60405180910390fd5b5f6109708787610fde565b905061097c88876116f1565b7f439148f0bbc682ca079e46d6e2c2f0c1e3b820f1a291b069d8882abf8cf18dd98873ffffffffffffffffffffffffffffffffffffffff166323e30c8b6109c16111d0565b8a8a868b8b6040518763ffffffff1660e01b81526004016109e796959493929190612f8d565b6020604051808303815f875af1158015610a03573d5f5f3e3d5ffd5b505050506040513d601f19601f82011682018060405250810190610a279190612ffb565b14610a6957876040517f678c5b00000000000000000000000000000000000000000000000000000000008152600401610a609190612d05565b60405180910390fd5b5f610a726117ef565b9050610a8a8930848a610a859190613053565b6111e9565b5f821480610ac357505f73ffffffffffffffffffffffffffffffffffffffff168173ffffffffffffffffffffffffffffffffffffffff16145b15610ae257610add898389610ad89190613053565b611770565b610af8565b610aec8988611770565b610af789828461127c565b5b6001935050505095945050505050565b5f3073ffffffffffffffffffffffffffffffffffffffff168273ffffffffffffffffffffffffffffffffffffffff1614610b42575f610b76565b610b4a6107df565b7fffffffffffffffffffffffffffffffffffffffffffffffffffffffffffffffff610b759190613086565b5b9050919050565b5f5f5f8373ffffffffffffffffffffffffffffffffffffffff1673ffffffffffffffffffffffffffffffffffffffff1681526020019081526020015f20549050919050565b610bca611422565b610bd35f6117f6565b565b610be782610be16111d0565b836111e9565b610bf18282611770565b5050565b5f610bff826118bb565b9050919050565b610c0e611422565b610c16611901565b565b5f6060805f5f5f6060610c29611963565b610c3161199e565b46305f5f1b5f67ffffffffffffffff811115610c5057610c4f612881565b5b604051908082528060200260200182016040528015610c7e5781602001602082028036833780820191505090505b507f0f00000000000000000000000000000000000000000000000000000000000000959493929190965096509650965096509650965090919293949596565b5f600560019054906101000a900473ffffffffffffffffffffffffffffffffffffffff16905090565b606060048054610cf590612efa565b80601f0160208091040260200160405190810160405280929190818152602001828054610d2190612efa565b8015610d6c5780601f10610d4357610100808354040283529160200191610d6c565b820191905f5260205f20905b815481529060010190602001808311610d4f57829003601f168201915b5050505050905090565b5f5f610d806111d0565b9050610d8d81858561127c565b600191505092915050565b5f610da48585856107e8565b610de9578484846040517fb56855e6000000000000000000000000000000000000000000000000000000008152600401610de0939291906130b9565b60405180910390fd5b610dfd610df46111d0565b8686868661150a565b60019050949350505050565b5f610e14848461079b565b610e575783836040517f50e555c4000000000000000000000000000000000000000000000000000000008152600401610e4e929190612f2a565b60405180910390fd5b610e6a610e626111d0565b8585856119d9565b600190509392505050565b83421115610eba57836040517f62791302000000000000000000000000000000000000000000000000000000008152600401610eb191906127ab565b60405180910390fd5b5f7f6e71edae12b1b97f4d1f60370fef10105fa2faae0126114a169c64845d6126c9888888610ee88c611bbd565b89604051602001610efe969594939291906130ee565b6040516020818303038152906040528051906020012090505f610f2082611c10565b90505f610f2f82878787611c29565b90508973ffffffffffffffffffffffffffffffffffffffff168173ffffffffffffffffffffffffffffffffffffffff1614610fa357808a6040517f4b800e46000000000000000000000000000000000000000000000000000000008152600401610f9a92919061314d565b60405180910390fd5b610fae8a8a8a6111d7565b50505050505050505050565b5f610fd584848460405180602001604052805f815250610d98565b90509392505050565b5f3073ffffffffffffffffffffffffffffffffffffffff168373ffffffffffffffffffffffffffffffffffffffff161461104f57826040517fb5a7db920000000000000000000000000000000000000000000000000000000081526004016110469190612d05565b60405180910390fd5b6110598383611c57565b905092915050565b5f60015f8473ffffffffffffffffffffffffffffffffffffffff1673ffffffffffffffffffffffffffffffffffffffff1681526020019081526020015f205f8373ffffffffffffffffffffffffffffffffffffffff1673ffffffffffffffffffffffffffffffffffffffff1681526020019081526020015f2054905092915050565b6110eb611422565b5f73ffffffffffffffffffffffffffffffffffffffff168173ffffffffffffffffffffffffffffffffffffffff160361115b575f6040517f1e4fbdf70000000000000000000000000000000000000000000000000000000081526004016111529190612d05565b60405180910390fd5b611164816117f6565b50565b5f7f01ffc9a7000000000000000000000000000000000000000000000000000000007bffffffffffffffffffffffffffffffffffffffffffffffffffffffff1916827bffffffffffffffffffffffffffffffffffffffffffffffffffffffff1916149050919050565b5f33905090565b6111e48383836001611c61565b505050565b5f6111f48484611061565b90507fffffffffffffffffffffffffffffffffffffffffffffffffffffffffffffffff8110156112765781811015611267578281836040517ffb8f41b200000000000000000000000000000000000000000000000000000000815260040161125e93929190613174565b60405180910390fd5b61127584848484035f611c61565b5b50505050565b5f73ffffffffffffffffffffffffffffffffffffffff168373ffffffffffffffffffffffffffffffffffffffff16036112ec575f6040517f96c6fd1e0000000000000000000000000000000000000000000000000000000081526004016112e39190612d05565b60405180910390fd5b5f73ffffffffffffffffffffffffffffffffffffffff168273ffffffffffffffffffffffffffffffffffffffff160361135c575f6040517fec442f050000000000000000000000000000000000000000000000000000000081526004016113539190612d05565b60405180910390fd5b611367838383611e30565b505050565b5f7f000000000000000000000000000000000000000000000000000000000000000073ffffffffffffffffffffffffffffffffffffffff163073ffffffffffffffffffffffffffffffffffffffff161480156113e757507f000000000000000000000000000000000000000000000000000000000000000046145b15611414577f0000000000000000000000000000000000000000000000000000000000000000905061141f565b61141c611e40565b90505b90565b61142a6111d0565b73ffffffffffffffffffffffffffffffffffffffff16611448610cbd565b73ffffffffffffffffffffffffffffffffffffffff16146114a75761146b6111d0565b6040517f118cdaa700000000000000000000000000000000000000000000000000000000815260040161149e9190612d05565b60405180910390fd5b565b6114b1611ed5565b5f60055f6101000a81548160ff0219169083151502179055507f5db9ee0a495bf2e6ff9c91a7834c1ba4fdd244a5e8aa4e537bd38aeae4b073aa6114f36111d0565b6040516115009190612d05565b60405180910390a1565b5f8373ffffffffffffffffffffffffffffffffffffffff163b0361156557826040517f8a96cd9c00000000000000000000000000000000000000000000000000000000815260040161155c9190612d05565b60405180910390fd5b8273ffffffffffffffffffffffffffffffffffffffff166388a7ca5c868685856040518563ffffffff1660e01b81526004016115a494939291906131eb565b6020604051808303815f875af19250505080156115df57506040513d601f19601f820116820180604052508101906115dc9190613249565b60015b611660573d805f811461160d576040519150601f19603f3d011682016040523d82523d5f602084013e611612565b606091505b505f81510361165857836040517f8a96cd9c00000000000000000000000000000000000000000000000000000000815260040161164f9190612d05565b60405180910390fd5b805160208201fd5b6388a7ca5c60e01b7bffffffffffffffffffffffffffffffffffffffffffffffffffffffff1916817bffffffffffffffffffffffffffffffffffffffffffffffffffffffff1916146116e957836040517f8a96cd9c0000000000000000000000000000000000000000000000000000000081526004016116e09190612d05565b60405180910390fd5b505050505050565b5f73ffffffffffffffffffffffffffffffffffffffff168273ffffffffffffffffffffffffffffffffffffffff1603611761575f6040517fec442f050000000000000000000000000000000000000000000000000000000081526004016117589190612d05565b60405180910390fd5b61176c5f8383611e30565b5050565b5f73ffffffffffffffffffffffffffffffffffffffff168273ffffffffffffffffffffffffffffffffffffffff16036117e0575f6040517f96c6fd1e0000000000000000000000000000000000000000000000000000000081526004016117d79190612d05565b60405180910390fd5b6117eb825f83611e30565b5050565b5f5f905090565b5f600560019054906101000a900473ffffffffffffffffffffffffffffffffffffffff16905081600560016101000a81548173ffffffffffffffffffffffffffffffffffffffff021916908373ffffffffffffffffffffffffffffffffffffffff1602179055508173ffffffffffffffffffffffffffffffffffffffff168173ffffffffffffffffffffffffffffffffffffffff167f8be0079c531659141344cd1fd0a4f28419497f9722a3daafe3b4186f6b6457e060405160405180910390a35050565b5f60085f8373ffffffffffffffffffffffffffffffffffffffff1673ffffffffffffffffffffffffffffffffffffffff1681526020019081526020015f20549050919050565b611909611f15565b600160055f6101000a81548160ff0219169083151502179055507f62e78cea01bee320cd4e420270b5ea74000d11b0c9f74754ebdbfc544b05a25861194c6111d0565b6040516119599190612d05565b60405180910390a1565b606061199960067f0000000000000000000000000000000000000000000000000000000000000000611f5690919063ffffffff16565b905090565b60606119d460077f0000000000000000000000000000000000000000000000000000000000000000611f5690919063ffffffff16565b905090565b5f8373ffffffffffffffffffffffffffffffffffffffff163b03611a3457826040517fdeb6d3ed000000000000000000000000000000000000000000000000000000008152600401611a2b9190612d05565b60405180910390fd5b8273ffffffffffffffffffffffffffffffffffffffff16637b04a2d08584846040518463ffffffff1660e01b8152600401611a7193929190613274565b6020604051808303815f875af1925050508015611aac57506040513d601f19601f82011682018060405250810190611aa99190613249565b60015b611b2d573d805f8114611ada576040519150601f19603f3d011682016040523d82523d5f602084013e611adf565b606091505b505f815103611b2557836040517fdeb6d3ed000000000000000000000000000000000000000000000000000000008152600401611b1c9190612d05565b60405180910390fd5b805160208201fd5b637b04a2d060e01b7bffffffffffffffffffffffffffffffffffffffffffffffffffffffff1916817bffffffffffffffffffffffffffffffffffffffffffffffffffffffff191614611bb657836040517fdeb6d3ed000000000000000000000000000000000000000000000000000000008152600401611bad9190612d05565b60405180910390fd5b5050505050565b5f60085f8373ffffffffffffffffffffffffffffffffffffffff1673ffffffffffffffffffffffffffffffffffffffff1681526020019081526020015f205f815480929190600101919050559050919050565b5f611c22611c1c61136c565b83612003565b9050919050565b5f5f5f5f611c3988888888612043565b925092509250611c49828261212a565b829350505050949350505050565b5f5f905092915050565b5f73ffffffffffffffffffffffffffffffffffffffff168473ffffffffffffffffffffffffffffffffffffffff1603611cd1575f6040517fe602df05000000000000000000000000000000000000000000000000000000008152600401611cc89190612d05565b60405180910390fd5b5f73ffffffffffffffffffffffffffffffffffffffff168373ffffffffffffffffffffffffffffffffffffffff1603611d41575f6040517f94280d62000000000000000000000000000000000000000000000000000000008152600401611d389190612d05565b60405180910390fd5b8160015f8673ffffffffffffffffffffffffffffffffffffffff1673ffffffffffffffffffffffffffffffffffffffff1681526020019081526020015f205f8573ffffffffffffffffffffffffffffffffffffffff1673ffffffffffffffffffffffffffffffffffffffff1681526020019081526020015f20819055508015611e2a578273ffffffffffffffffffffffffffffffffffffffff168473ffffffffffffffffffffffffffffffffffffffff167f8c5be1e5ebec7d5bd14f71427d1e84f3dd0314c0f7b2291e5b200ac8c7c3b92584604051611e2191906127ab565b60405180910390a35b50505050565b611e3b83838361228c565b505050565b5f7f8b73c3c69bb8fe3d512ecc4cf759cc79239f7b179b0ffacaa9a75d522b39400f7f00000000000000000000000000000000000000000000000000000000000000007f00000000000000000000000000000000000000000000000000000000000000004630604051602001611eba9594939291906132b0565b60405160208183030381529060405280519060200120905090565b611edd6108fe565b611f13576040517f8dfc202b00000000000000000000000000000000000000000000000000000000815260040160405180910390fd5b565b611f1d6108fe565b15611f54576040517fd93c066500000000000000000000000000000000000000000000000000000000815260040160405180910390fd5b565b606060ff5f1b8314611f7257611f6b836122a4565b9050611ffd565b818054611f7e90612efa565b80601f0160208091040260200160405190810160405280929190818152602001828054611faa90612efa565b8015611ff55780601f10611fcc57610100808354040283529160200191611ff5565b820191905f5260205f20905b815481529060010190602001808311611fd857829003601f168201915b505050505090505b92915050565b5f6040517f190100000000000000000000000000000000000000000000000000000000000081528360028201528260228201526042812091505092915050565b5f5f5f7f7fffffffffffffffffffffffffffffff5d576e7357a4501ddfe92f46681b20a0845f1c111561207f575f600385925092509250612120565b5f6001888888886040515f81526020016040526040516120a29493929190613301565b6020604051602081039080840390855afa1580156120c2573d5f5f3e3d5ffd5b5050506020604051035190505f73ffffffffffffffffffffffffffffffffffffffff168173ffffffffffffffffffffffffffffffffffffffff1603612113575f60015f5f1b93509350935050612120565b805f5f5f1b935093509350505b9450945094915050565b5f600381111561213d5761213c613344565b5b8260038111156121505761214f613344565b5b0315612288576001600381111561216a57612169613344565b5b82600381111561217d5761217c613344565b5b036121b4576040517ff645eedf00000000000000000000000000000000000000000000000000000000815260040160405180910390fd5b600260038111156121c8576121c7613344565b5b8260038111156121db576121da613344565b5b0361221f57805f1c6040517ffce698f700000000000000000000000000000000000000000000000000000000815260040161221691906127ab565b60405180910390fd5b60038081111561223257612231613344565b5b82600381111561224557612244613344565b5b0361228757806040517fd78bce0c00000000000000000000000000000000000000000000000000000000815260040161227e9190612860565b60405180910390fd5b5b5050565b612294611f15565b61229f838383612316565b505050565b60605f6122b08361252f565b90505f602067ffffffffffffffff8111156122ce576122cd612881565b5b6040519080825280601f01601f1916602001820160405280156123005781602001600182028036833780820191505090505b5090508181528360208201528092505050919050565b5f73ffffffffffffffffffffffffffffffffffffffff168373ffffffffffffffffffffffffffffffffffffffff1603612366578060025f82825461235a9190613053565b92505081905550612434565b5f5f5f8573ffffffffffffffffffffffffffffffffffffffff1673ffffffffffffffffffffffffffffffffffffffff1681526020019081526020015f20549050818110156123ef578381836040517fe450d38c0000000000000000000000000000000000000000000000000000000081526004016123e693929190613174565b60405180910390fd5b8181035f5f8673ffffffffffffffffffffffffffffffffffffffff1673ffffffffffffffffffffffffffffffffffffffff1681526020019081526020015f2081905550505b5f73ffffffffffffffffffffffffffffffffffffffff168273ffffffffffffffffffffffffffffffffffffffff160361247b578060025f82825403925050819055506124c5565b805f5f8473ffffffffffffffffffffffffffffffffffffffff1673ffffffffffffffffffffffffffffffffffffffff1681526020019081526020015f205f82825401925050819055505b8173ffffffffffffffffffffffffffffffffffffffff168373ffffffffffffffffffffffffffffffffffffffff167fddf252ad1be2c89b69c2b068fc378daa952ba7f163c4a11628f55a4df523b3ef8360405161252291906127ab565b60405180910390a3505050565b5f5f60ff835f1c169050601f811115612574576040517fb3512b0c00000000000000000000000000000000000000000000000000000000815260040160405180910390fd5b80915050919050565b5f604051905090565b5f5ffd5b5f5ffd5b5f7fffffffff0000000000000000000000000000000000000000000000000000000082169050919050565b6125c28161258e565b81146125cc575f5ffd5b50565b5f813590506125dd816125b9565b92915050565b5f602082840312156125f8576125f7612586565b5b5f612605848285016125cf565b91505092915050565b5f8115159050919050565b6126228161260e565b82525050565b5f60208201905061263b5f830184612619565b92915050565b5f81519050919050565b5f82825260208201905092915050565b8281835e5f83830152505050565b5f601f19601f8301169050919050565b5f61268382612641565b61268d818561264b565b935061269d81856020860161265b565b6126a681612669565b840191505092915050565b5f6020820190508181035f8301526126c98184612679565b905092915050565b5f73ffffffffffffffffffffffffffffffffffffffff82169050919050565b5f6126fa826126d1565b9050919050565b61270a816126f0565b8114612714575f5ffd5b50565b5f8135905061272581612701565b92915050565b5f819050919050565b61273d8161272b565b8114612747575f5ffd5b50565b5f8135905061275881612734565b92915050565b5f5f6040838503121561277457612773612586565b5b5f61278185828601612717565b92505060206127928582860161274a565b9150509250929050565b6127a58161272b565b82525050565b5f6020820190506127be5f83018461279c565b92915050565b5f5f5f606084860312156127db576127da612586565b5b5f6127e886828701612717565b93505060206127f986828701612717565b925050604061280a8682870161274a565b9150509250925092565b5f60ff82169050919050565b61282981612814565b82525050565b5f6020820190506128425f830184612820565b92915050565b5f819050919050565b61285a81612848565b82525050565b5f6020820190506128735f830184612851565b92915050565b5f5ffd5b5f5ffd5b7f4e487b71000000000000000000000000000000000000000000000000000000005f52604160045260245ffd5b6128b782612669565b810181811067ffffffffffffffff821117156128d6576128d5612881565b5b80604052505050565b5f6128e861257d565b90506128f482826128ae565b919050565b5f67ffffffffffffffff82111561291357612912612881565b5b61291c82612669565b9050602081019050919050565b828183375f83830152505050565b5f612949612944846128f9565b6128df565b9050828152602081018484840111156129655761296461287d565b5b612970848285612929565b509392505050565b5f82601f83011261298c5761298b612879565b5b813561299c848260208601612937565b91505092915050565b5f5f5f606084860312156129bc576129bb612586565b5b5f6129c986828701612717565b93505060206129da8682870161274a565b925050604084013567ffffffffffffffff8111156129fb576129fa61258a565b5b612a0786828701612978565b9150509250925092565b5f60208284031215612a2657612a25612586565b5b5f612a338482850161274a565b91505092915050565b5f612a46826126f0565b9050919050565b612a5681612a3c565b8114612a60575f5ffd5b50565b5f81359050612a7181612a4d565b92915050565b5f5ffd5b5f5ffd5b5f5f83601f840112612a9457612a93612879565b5b8235905067ffffffffffffffff811115612ab157612ab0612a77565b5b602083019150836001820283011115612acd57612acc612a7b565b5b9250929050565b5f5f5f5f5f60808688031215612aed57612aec612586565b5b5f612afa88828901612a63565b9550506020612b0b88828901612717565b9450506040612b1c8882890161274a565b935050606086013567ffffffffffffffff811115612b3d57612b3c61258a565b5b612b4988828901612a7f565b92509250509295509295909350565b5f60208284031215612b6d57612b6c612586565b5b5f612b7a84828501612717565b91505092915050565b5f7fff0000000000000000000000000000000000000000000000000000000000000082169050919050565b612bb781612b83565b82525050565b612bc6816126f0565b82525050565b5f81519050919050565b5f82825260208201905092915050565b5f819050602082019050919050565b612bfe8161272b565b82525050565b5f612c0f8383612bf5565b60208301905092915050565b5f602082019050919050565b5f612c3182612bcc565b612c3b8185612bd6565b9350612c4683612be6565b805f5b83811015612c76578151612c5d8882612c04565b9750612c6883612c1b565b925050600181019050612c49565b5085935050505092915050565b5f60e082019050612c965f83018a612bae565b8181036020830152612ca88189612679565b90508181036040830152612cbc8188612679565b9050612ccb606083018761279c565b612cd86080830186612bbd565b612ce560a0830185612851565b81810360c0830152612cf78184612c27565b905098975050505050505050565b5f602082019050612d185f830184612bbd565b92915050565b5f5f5f5f60808587031215612d3657612d35612586565b5b5f612d4387828801612717565b9450506020612d5487828801612717565b9350506040612d658782880161274a565b925050606085013567ffffffffffffffff811115612d8657612d8561258a565b5b612d9287828801612978565b91505092959194509250565b612da781612814565b8114612db1575f5ffd5b50565b5f81359050612dc281612d9e565b92915050565b612dd181612848565b8114612ddb575f5ffd5b50565b5f81359050612dec81612dc8565b92915050565b5f5f5f5f5f5f5f60e0888a031215612e0d57612e0c612586565b5b5f612e1a8a828b01612717565b9750506020612e2b8a828b01612717565b9650506040612e3c8a828b0161274a565b9550506060612e4d8a828b0161274a565b9450506080612e5e8a828b01612db4565b93505060a0612e6f8a828b01612dde565b92505060c0612e808a828b01612dde565b91505092959891949750929550565b5f5f60408385031215612ea557612ea4612586565b5b5f612eb285828601612717565b9250506020612ec385828601612717565b9150509250929050565b7f4e487b71000000000000000000000000000000000000000000000000000000005f52602260045260245ffd5b5f6002820490506001821680612f1157607f821691505b602082108103612f2457612f23612ecd565b5b50919050565b5f604082019050612f3d5f830185612bbd565b612f4a602083018461279c565b9392505050565b5f82825260208201905092915050565b5f612f6c8385612f51565b9350612f79838584612929565b612f8283612669565b840190509392505050565b5f60a082019050612fa05f830189612bbd565b612fad6020830188612bbd565b612fba604083018761279c565b612fc7606083018661279c565b8181036080830152612fda818486612f61565b9050979650505050505050565b5f81519050612ff581612dc8565b92915050565b5f602082840312156130105761300f612586565b5b5f61301d84828501612fe7565b91505092915050565b7f4e487b71000000000000000000000000000000000000000000000000000000005f52601160045260245ffd5b5f61305d8261272b565b91506130688361272b565b92508282019050808211156130805761307f613026565b5b92915050565b5f6130908261272b565b915061309b8361272b565b92508282039050818111156130b3576130b2613026565b5b92915050565b5f6060820190506130cc5f830186612bbd565b6130d96020830185612bbd565b6130e6604083018461279c565b949350505050565b5f60c0820190506131015f830189612851565b61310e6020830188612bbd565b61311b6040830187612bbd565b613128606083018661279c565b613135608083018561279c565b61314260a083018461279c565b979650505050505050565b5f6040820190506131605f830185612bbd565b61316d6020830184612bbd565b9392505050565b5f6060820190506131875f830186612bbd565b613194602083018561279c565b6131a1604083018461279c565b949350505050565b5f81519050919050565b5f6131bd826131a9565b6131c78185612f51565b93506131d781856020860161265b565b6131e081612669565b840191505092915050565b5f6080820190506131fe5f830187612bbd565b61320b6020830186612bbd565b613218604083018561279c565b818103606083015261322a81846131b3565b905095945050505050565b5f81519050613243816125b9565b92915050565b5f6020828403121561325e5761325d612586565b5b5f61326b84828501613235565b91505092915050565b5f6060820190506132875f830186612bbd565b613294602083018561279c565b81810360408301526132a681846131b3565b9050949350505050565b5f60a0820190506132c35f830188612851565b6132d06020830187612851565b6132dd6040830186612851565b6132ea606083018561279c565b6132f76080830184612bbd565b9695505050505050565b5f6080820190506133145f830187612851565b6133216020830186612820565b61332e6040830185612851565b61333b6060830184612851565b95945050505050565b7f4e487b71000000000000000000000000000000000000000000000000000000005f52602160045260245ffdfea26469706673582212207e1bbecca7d375eeb19c48311897593fca0007d039aa76366c455910d7e047fb64736f6c634300081c0033","linkReferences":{}},"methodIdentifiers":{"DOMAIN_SEPARATOR()":"3644e515","allowance(address,address)":"dd62ed3e","approve(address,uint256)":"095ea7b3","approveAndCall(address,uint256)":"3177029f","approveAndCall(address,uint256,bytes)":"cae9ca51","balanceOf(address)":"70a08231","burn(uint256)":"42966c68","burnFrom(address,uint256)":"79cc6790","decimals()":"313ce567","eip712Domain()":"84b0196e","flashFee(address,uint256)":"d9d98ce4","flashLoan(address,address,uint256,bytes)":"5cffe9de","maxFlashLoan(address)":"613255ab","mint(address,uint256)":"40c10f19","name()":"06fdde03","nonces(address)":"7ecebe00","owner()":"8da5cb5b","pause()":"8456cb59","paused()":"5c975abb","permit(address,address,uint256,uint256,uint8,bytes32,bytes32)":"d505accf","renounceOwnership()":"715018a6","supportsInterface(bytes4)":"01ffc9a7","symbol()":"95d89b41","totalSupply()":"18160ddd","transfer(address,uint256)":"a9059cbb","transferAndCall(address,uint256)":"1296ee62","transferAndCall(address,uint256,bytes)":"4000aea0","transferFrom(address,address,uint256)":"23b872dd","transferFromAndCall(address,address,uint256)":"d8fbe994","transferFromAndCall(address,address,uint256,bytes)":"c1d34b89","transferOwnership(address)":"f2fde38b","unpause()":"3f4ba83a"},"id":51}